{
  "contractName": "BaggageClaim",
  "abi": [
    {
      "inputs": [],
      "payable": false,
      "stateMutability": "nonpayable",
      "type": "constructor"
    },
    {
      "anonymous": false,
      "inputs": [
        {
          "indexed": true,
          "internalType": "address",
          "name": "owner",
          "type": "address"
        },
        {
          "indexed": true,
          "internalType": "address",
          "name": "spender",
          "type": "address"
        },
        {
          "indexed": false,
          "internalType": "uint256",
          "name": "value",
          "type": "uint256"
        }
      ],
      "name": "Approval",
      "type": "event"
    },
    {
      "anonymous": false,
      "inputs": [
        {
          "indexed": false,
          "internalType": "string",
          "name": "message",
          "type": "string"
        },
        {
          "indexed": false,
          "internalType": "uint256",
          "name": "value",
          "type": "uint256"
        }
      ],
      "name": "LogMessage",
      "type": "event"
    },
    {
      "anonymous": false,
      "inputs": [
        {
          "indexed": true,
          "internalType": "address",
          "name": "from",
          "type": "address"
        },
        {
          "indexed": true,
          "internalType": "address",
          "name": "to",
          "type": "address"
        },
        {
          "indexed": false,
          "internalType": "uint256",
          "name": "value",
          "type": "uint256"
        }
      ],
      "name": "Transfer",
      "type": "event"
    },
    {
      "constant": true,
      "inputs": [],
      "name": "myBalance",
      "outputs": [
        {
          "internalType": "uint256",
          "name": "",
          "type": "uint256"
        }
      ],
      "payable": false,
      "stateMutability": "view",
      "type": "function"
    },
    {
      "constant": false,
      "inputs": [
        {
          "internalType": "address",
          "name": "customer",
          "type": "address"
        }
      ],
      "name": "unregisterCustomer",
      "outputs": [],
      "payable": false,
      "stateMutability": "nonpayable",
      "type": "function"
    },
    {
      "constant": false,
      "inputs": [
        {
          "internalType": "address",
          "name": "toAirports",
          "type": "address"
        }
      ],
      "name": "unregisterAirports",
      "outputs": [],
      "payable": false,
      "stateMutability": "nonpayable",
      "type": "function"
    },
    {
      "constant": false,
      "inputs": [
        {
          "internalType": "address",
          "name": "joiner",
          "type": "address"
        }
      ],
      "name": "giveJoiningBonus",
      "outputs": [],
      "payable": false,
      "stateMutability": "nonpayable",
      "type": "function"
    },
    {
      "constant": false,
      "inputs": [
        {
          "internalType": "string",
          "name": "airportsName",
          "type": "string"
        },
        {
          "internalType": "uint256",
          "name": "pricePerbag",
          "type": "uint256"
        }
      ],
      "name": "registerAirports",
      "outputs": [],
      "payable": false,
      "stateMutability": "nonpayable",
      "type": "function"
    },
    {
      "constant": false,
      "inputs": [
        {
          "internalType": "uint256",
          "name": "noOfBaggage",
          "type": "uint256"
        }
      ],
      "name": "addBaggaage",
      "outputs": [],
      "payable": false,
      "stateMutability": "nonpayable",
      "type": "function"
    },
    {
      "constant": false,
      "inputs": [
        {
          "internalType": "uint256",
          "name": "done",
          "type": "uint256"
        },
        {
          "internalType": "uint256",
          "name": "hashOfDetails",
          "type": "uint256"
        }
      ],
      "name": "responseToClaimBaggage",
      "outputs": [],
      "payable": false,
      "stateMutability": "nonpayable",
      "type": "function"
    },
    {
      "constant": false,
      "inputs": [],
      "name": "registerCustomer",
      "outputs": [],
      "payable": false,
      "stateMutability": "nonpayable",
      "type": "function"
    },
    {
      "constant": false,
      "inputs": [
        {
          "internalType": "address",
          "name": "fromAirport",
          "type": "address"
        },
        {
          "internalType": "uint256",
          "name": "hashOfDetails",
          "type": "uint256"
        },
        {
          "internalType": "uint256",
          "name": "noOfBaggage",
          "type": "uint256"
        }
      ],
      "name": "requestToClaimBaggage",
      "outputs": [],
      "payable": false,
      "stateMutability": "nonpayable",
      "type": "function"
    },
    {
      "constant": false,
      "inputs": [
        {
          "internalType": "address",
          "name": "toAirport",
          "type": "address"
        },
        {
          "internalType": "uint256",
          "name": "hashOfDetails",
          "type": "uint256"
        }
      ],
      "name": "settlePayment",
      "outputs": [],
      "payable": false,
      "stateMutability": "nonpayable",
      "type": "function"
    },
    {
      "constant": true,
      "inputs": [],
      "name": "getTotalUnclaimedBaggage",
      "outputs": [
        {
          "internalType": "uint256",
          "name": "",
          "type": "uint256"
        }
      ],
      "payable": false,
      "stateMutability": "view",
      "type": "function"
    },
    {
      "constant": true,
      "inputs": [],
      "name": "getAirportClaimedBagagge",
      "outputs": [
        {
          "internalType": "uint256",
          "name": "",
          "type": "uint256"
        }
      ],
      "payable": false,
      "stateMutability": "view",
      "type": "function"
    },
    {
      "constant": true,
      "inputs": [],
      "name": "getAirportsCount",
      "outputs": [
        {
          "internalType": "uint256",
          "name": "",
          "type": "uint256"
        }
      ],
      "payable": false,
      "stateMutability": "view",
      "type": "function"
    },
    {
      "constant": true,
      "inputs": [
        {
          "internalType": "uint256",
          "name": "index",
          "type": "uint256"
        }
      ],
      "name": "getAirportsName",
      "outputs": [
        {
          "internalType": "string",
          "name": "",
          "type": "string"
        }
      ],
      "payable": false,
      "stateMutability": "view",
      "type": "function"
    },
    {
      "constant": true,
      "inputs": [
        {
          "internalType": "uint256",
          "name": "index",
          "type": "uint256"
        }
      ],
      "name": "getAirportsAddress",
      "outputs": [
        {
          "internalType": "address",
          "name": "",
          "type": "address"
        }
      ],
      "payable": false,
      "stateMutability": "view",
      "type": "function"
    },
    {
      "constant": true,
      "inputs": [],
      "name": "getAirportPricePerBag",
      "outputs": [
        {
          "internalType": "uint256",
          "name": "",
          "type": "uint256"
        }
      ],
      "payable": false,
      "stateMutability": "view",
      "type": "function"
    },
    {
      "constant": true,
      "inputs": [],
      "name": "getMembershipStatus",
      "outputs": [
        {
          "internalType": "uint256",
          "name": "",
          "type": "uint256"
        }
      ],
      "payable": false,
      "stateMutability": "view",
      "type": "function"
    },
    {
      "constant": true,
      "inputs": [],
      "name": "balanceOf",
      "outputs": [
        {
          "internalType": "uint256",
          "name": "",
          "type": "uint256"
        }
      ],
      "payable": false,
      "stateMutability": "view",
      "type": "function"
    }
  ],
  "bytecode": "0x60806040523480156200001157600080fd5b506040518060400160405280600d81526020017f4261676761676520436c61696d00000000000000000000000000000000000000815250600390805190602001906200005f92919062000192565b506040518060400160405280600381526020017f435542000000000000000000000000000000000000000000000000000000000081525060049080519060200190620000ad92919062000192565b506127106002819055506002546000803373ffffffffffffffffffffffffffffffffffffffff1673ffffffffffffffffffffffffffffffffffffffff1681526020019081526020016000208190555033600560006101000a81548173ffffffffffffffffffffffffffffffffffffffff021916908373ffffffffffffffffffffffffffffffffffffffff1602179055506002600a60003373ffffffffffffffffffffffffffffffffffffffff1673ffffffffffffffffffffffffffffffffffffffff168152602001908152602001600020600001819055504760068190555062000241565b828054600181600116156101000203166002900490600052602060002090601f016020900481019282601f10620001d557805160ff191683800117855562000206565b8280016001018555821562000206579182015b8281111562000205578251825591602001919060010190620001e8565b5b50905062000215919062000219565b5090565b6200023e91905b808211156200023a57600081600090555060010162000220565b5090565b90565b61219280620002516000396000f3fe608060405234801561001057600080fd5b50600436106101165760003560e01c806388136f34116100a2578063ae39b6b911610071578063ae39b6b9146104a9578063bbe72963146104c7578063c679238114610535578063c9116b6914610553578063f60c39d61461057157610116565b806388136f34146103015780639bc61067146103a85780639f6bd5291461046d578063a708c9391461048b57610116565b8063485c65a7116100e9578063485c65a7146101d55780634d9e9f5d1461021957806360501f121461024757806371679f111461028b578063722713f7146102e357610116565b8063218693441461011b578063273570111461013957806327f67389146101435780633e60e34814610187575b600080fd5b6101236105a9565b6040518082815260200191505060405180910390f35b6101416105f3565b005b6101856004803603602081101561015957600080fd5b81019080803573ffffffffffffffffffffffffffffffffffffffff16906020019092919050505061074b565b005b6101d36004803603604081101561019d57600080fd5b81019080803573ffffffffffffffffffffffffffffffffffffffff16906020019092919080359060200190929190505050610873565b005b610217600480360360208110156101eb57600080fd5b81019080803573ffffffffffffffffffffffffffffffffffffffff169060200190929190505050610c96565b005b6102456004803603602081101561022f57600080fd5b8101908080359060200190929190505050610e61565b005b6102896004803603602081101561025d57600080fd5b81019080803573ffffffffffffffffffffffffffffffffffffffff169060200190929190505050610f53565b005b6102e1600480360360608110156102a157600080fd5b81019080803573ffffffffffffffffffffffffffffffffffffffff169060200190929190803590602001909291908035906020019092919050505061111e565b005b6102eb61138b565b6040518082815260200191505060405180910390f35b61032d6004803603602081101561031757600080fd5b81019080803590602001909291905050506113d1565b6040518080602001828103825283818151815260200191508051906020019080838360005b8381101561036d578082015181840152602081019050610352565b50505050905090810190601f16801561039a5780820380516001836020036101000a031916815260200191505b509250505060405180910390f35b61046b600480360360408110156103be57600080fd5b81019080803590602001906401000000008111156103db57600080fd5b8201836020820111156103ed57600080fd5b8035906020019184600183028401116401000000008311171561040f57600080fd5b91908080601f016020809104026020016040519081016040528093929190818152602001838380828437600081840152601f19601f82011690508083019250505050505050919291929080359060200190929190505050611491565b005b6104756117b3565b6040518082815260200191505060405180910390f35b6104936117c0565b6040518082815260200191505060405180910390f35b6104b161180a565b6040518082815260200191505060405180910390f35b6104f3600480360360208110156104dd57600080fd5b8101908080359060200190929190505050611854565b604051808273ffffffffffffffffffffffffffffffffffffffff1673ffffffffffffffffffffffffffffffffffffffff16815260200191505060405180910390f35b61053d61189c565b6040518082815260200191505060405180910390f35b61055b6118e6565b6040518082815260200191505060405180910390f35b6105a76004803603604081101561058757600080fd5b8101908080359060200190929190803590602001909291905050506118ec565b005b6000600860003373ffffffffffffffffffffffffffffffffffffffff1673ffffffffffffffffffffffffffffffffffffffff16815260200190815260200160002060040154905090565b600560009054906101000a900473ffffffffffffffffffffffffffffffffffffffff1673ffffffffffffffffffffffffffffffffffffffff163373ffffffffffffffffffffffffffffffffffffffff16141561064e57600080fd5b6001600a60003373ffffffffffffffffffffffffffffffffffffffff1673ffffffffffffffffffffffffffffffffffffffff16815260200190815260200160002060000154141561069e57600080fd5b60003390506003600a60008373ffffffffffffffffffffffffffffffffffffffff1673ffffffffffffffffffffffffffffffffffffffff16815260200190815260200160002060000181905550610719600560009054906101000a900473ffffffffffffffffffffffffffffffffffffffff16826064611a0b565b610747600560009054906101000a900473ffffffffffffffffffffffffffffffffffffffff16826064611c02565b5050565b600560009054906101000a900473ffffffffffffffffffffffffffffffffffffffff1673ffffffffffffffffffffffffffffffffffffffff163373ffffffffffffffffffffffffffffffffffffffff16146107a557600080fd5b6000600a60008373ffffffffffffffffffffffffffffffffffffffff1673ffffffffffffffffffffffffffffffffffffffff16815260200190815260200160002060000154148061083857506002600a60008373ffffffffffffffffffffffffffffffffffffffff1673ffffffffffffffffffffffffffffffffffffffff16815260200190815260200160002060000154145b1561084257600080fd5b610870600560009054906101000a900473ffffffffffffffffffffffffffffffffffffffff16826014611d10565b50565b6001600a60003373ffffffffffffffffffffffffffffffffffffffff1673ffffffffffffffffffffffffffffffffffffffff1681526020019081526020016000206000015414156108c357600080fd5b6002600a60003373ffffffffffffffffffffffffffffffffffffffff1673ffffffffffffffffffffffffffffffffffffffff16815260200190815260200160002060000154141561091357600080fd5b6000600960008381526020019081526020016000206001015490506000600860008573ffffffffffffffffffffffffffffffffffffffff1673ffffffffffffffffffffffffffffffffffffffff16815260200190815260200160002060010154820290507f69a6cf7852823a03f1e0278fa944045502fae9fb546695dbf1f50521651a8b738160405180806020018381526020018281038252600b8152602001807f5061796d656e74206f66200000000000000000000000000000000000000000008152506020019250505060405180910390a17f69a6cf7852823a03f1e0278fa944045502fae9fb546695dbf1f50521651a8b73816040518080602001838152602001828103825260188152602001807f5061796d656e74206f6620616972706f72742073656e742000000000000000008152506020019250505060405180910390a180610a6061138b565b1015610a6b57600080fd5b6002600960008581526020019081526020016000206000015414610a8e57600080fd5b6000339050610a9e818684611d10565b82600860008773ffffffffffffffffffffffffffffffffffffffff1673ffffffffffffffffffffffffffffffffffffffff1681526020019081526020016000206002015403600860008773ffffffffffffffffffffffffffffffffffffffff1673ffffffffffffffffffffffffffffffffffffffff1681526020019081526020016000206002018190555082600860008773ffffffffffffffffffffffffffffffffffffffff1673ffffffffffffffffffffffffffffffffffffffff1681526020019081526020016000206003015403600860008773ffffffffffffffffffffffffffffffffffffffff1673ffffffffffffffffffffffffffffffffffffffff1681526020019081526020016000206003018190555082600860008773ffffffffffffffffffffffffffffffffffffffff1673ffffffffffffffffffffffffffffffffffffffff1681526020019081526020016000206004015401600860008773ffffffffffffffffffffffffffffffffffffffff1673ffffffffffffffffffffffffffffffffffffffff1681526020019081526020016000206004016000828254019250508190555083600760008773ffffffffffffffffffffffffffffffffffffffff1673ffffffffffffffffffffffffffffffffffffffff168152602001908152602001600020600101819055505050505050565b600560009054906101000a900473ffffffffffffffffffffffffffffffffffffffff1673ffffffffffffffffffffffffffffffffffffffff163373ffffffffffffffffffffffffffffffffffffffff1614610cf057600080fd5b6003600a60008373ffffffffffffffffffffffffffffffffffffffff1673ffffffffffffffffffffffffffffffffffffffff1681526020019081526020016000206000015414610d3f57600080fd5b6000600a60008373ffffffffffffffffffffffffffffffffffffffff1673ffffffffffffffffffffffffffffffffffffffff16815260200190815260200160002060000181905550610df281600560009054906101000a900473ffffffffffffffffffffffffffffffffffffffff166000808573ffffffffffffffffffffffffffffffffffffffff1673ffffffffffffffffffffffffffffffffffffffff16815260200190815260200160002054611a0b565b610e5d81600560009054906101000a900473ffffffffffffffffffffffffffffffffffffffff166000808573ffffffffffffffffffffffffffffffffffffffff1673ffffffffffffffffffffffffffffffffffffffff16815260200190815260200160002054611c02565b5050565b6001600a60003373ffffffffffffffffffffffffffffffffffffffff1673ffffffffffffffffffffffffffffffffffffffff1681526020019081526020016000206000015414610eb057600080fd5b80600860003373ffffffffffffffffffffffffffffffffffffffff1673ffffffffffffffffffffffffffffffffffffffff1681526020019081526020016000206002016000828254019250508190555080600860003373ffffffffffffffffffffffffffffffffffffffff1673ffffffffffffffffffffffffffffffffffffffff1681526020019081526020016000206003016000828254019250508190555050565b600560009054906101000a900473ffffffffffffffffffffffffffffffffffffffff1673ffffffffffffffffffffffffffffffffffffffff163373ffffffffffffffffffffffffffffffffffffffff1614610fad57600080fd5b6001600a60008373ffffffffffffffffffffffffffffffffffffffff1673ffffffffffffffffffffffffffffffffffffffff1681526020019081526020016000206000015414610ffc57600080fd5b6000600a60008373ffffffffffffffffffffffffffffffffffffffff1673ffffffffffffffffffffffffffffffffffffffff168152602001908152602001600020600001819055506110af81600560009054906101000a900473ffffffffffffffffffffffffffffffffffffffff166000808573ffffffffffffffffffffffffffffffffffffffff1673ffffffffffffffffffffffffffffffffffffffff16815260200190815260200160002054611a0b565b61111a81600560009054906101000a900473ffffffffffffffffffffffffffffffffffffffff166000808573ffffffffffffffffffffffffffffffffffffffff1673ffffffffffffffffffffffffffffffffffffffff16815260200190815260200160002054611c02565b5050565b6001600a60003373ffffffffffffffffffffffffffffffffffffffff1673ffffffffffffffffffffffffffffffffffffffff16815260200190815260200160002060000154141561116e57600080fd5b6002600a60003373ffffffffffffffffffffffffffffffffffffffff1673ffffffffffffffffffffffffffffffffffffffff1681526020019081526020016000206000015414156111be57600080fd5b600081600860008673ffffffffffffffffffffffffffffffffffffffff1673ffffffffffffffffffffffffffffffffffffffff1681526020019081526020016000206001015402905081600860008673ffffffffffffffffffffffffffffffffffffffff1673ffffffffffffffffffffffffffffffffffffffff16815260200190815260200160002060030154101561125657600080fd5b6001600a60008673ffffffffffffffffffffffffffffffffffffffff1673ffffffffffffffffffffffffffffffffffffffff16815260200190815260200160002060000154146112a557600080fd5b6112ad61138b565b8111156112b957600080fd5b60003390506001600760008373ffffffffffffffffffffffffffffffffffffffff1673ffffffffffffffffffffffffffffffffffffffff1681526020019081526020016000206000018190555083600760003373ffffffffffffffffffffffffffffffffffffffff1673ffffffffffffffffffffffffffffffffffffffff16815260200190815260200160002060010181905550600160096000868152602001908152602001600020600001819055508260096000868152602001908152602001600020600101819055505050505050565b60008060003373ffffffffffffffffffffffffffffffffffffffff1673ffffffffffffffffffffffffffffffffffffffff16815260200190815260200160002054905090565b6060600b82815481106113e057fe5b90600052602060002090600202016001018054600181600116156101000203166002900480601f0160208091040260200160405190810160405280929190818152602001828054600181600116156101000203166002900480156114855780601f1061145a57610100808354040283529160200191611485565b820191906000526020600020905b81548152906001019060200180831161146857829003601f168201915b50505050509050919050565b600560009054906101000a900473ffffffffffffffffffffffffffffffffffffffff1673ffffffffffffffffffffffffffffffffffffffff163373ffffffffffffffffffffffffffffffffffffffff1614156114ec57600080fd5b6003600a60003373ffffffffffffffffffffffffffffffffffffffff1673ffffffffffffffffffffffffffffffffffffffff16815260200190815260200160002060000154141561153c57600080fd5b600033905042600860008373ffffffffffffffffffffffffffffffffffffffff1673ffffffffffffffffffffffffffffffffffffffff168152602001908152602001600020600001819055506001600a60008373ffffffffffffffffffffffffffffffffffffffff1673ffffffffffffffffffffffffffffffffffffffff1681526020019081526020016000206000018190555081600860008373ffffffffffffffffffffffffffffffffffffffff1673ffffffffffffffffffffffffffffffffffffffff168152602001908152602001600020600101819055506000600860008373ffffffffffffffffffffffffffffffffffffffff1673ffffffffffffffffffffffffffffffffffffffff168152602001908152602001600020600201819055506000600860008373ffffffffffffffffffffffffffffffffffffffff1673ffffffffffffffffffffffffffffffffffffffff168152602001908152602001600020600401819055506000600860008373ffffffffffffffffffffffffffffffffffffffff1673ffffffffffffffffffffffffffffffffffffffff16815260200190815260200160002060030181905550600b60405180604001604052808373ffffffffffffffffffffffffffffffffffffffff168152602001858152509080600181540180825580915050906001820390600052602060002090600202016000909192909190915060008201518160000160006101000a81548173ffffffffffffffffffffffffffffffffffffffff021916908373ffffffffffffffffffffffffffffffffffffffff16021790555060208201518160010190805190602001906117aa929190611fdc565b50505050505050565b6000600b80549050905090565b6000600a60003373ffffffffffffffffffffffffffffffffffffffff1673ffffffffffffffffffffffffffffffffffffffff16815260200190815260200160002060000154905090565b6000600860003373ffffffffffffffffffffffffffffffffffffffff1673ffffffffffffffffffffffffffffffffffffffff16815260200190815260200160002060030154905090565b6000600b828154811061186357fe5b906000526020600020906002020160000160009054906101000a900473ffffffffffffffffffffffffffffffffffffffff169050919050565b6000600860003373ffffffffffffffffffffffffffffffffffffffff1673ffffffffffffffffffffffffffffffffffffffff16815260200190815260200160002060010154905090565b60065481565b6001600a60003373ffffffffffffffffffffffffffffffffffffffff1673ffffffffffffffffffffffffffffffffffffffff168152602001908152602001600020600001541461193b57600080fd5b600160096000838152602001908152602001600020600001541461195e57600080fd5b81600760003373ffffffffffffffffffffffffffffffffffffffff1673ffffffffffffffffffffffffffffffffffffffff1681526020019081526020016000206000018190555080600760003373ffffffffffffffffffffffffffffffffffffffff1673ffffffffffffffffffffffffffffffffffffffff168152602001908152602001600020600101819055508160096000838152602001908152602001600020600001819055505050565b600073ffffffffffffffffffffffffffffffffffffffff168373ffffffffffffffffffffffffffffffffffffffff161415611a91576040517f08c379a000000000000000000000000000000000000000000000000000000000815260040180806020018281038252602481526020018061213a6024913960400191505060405180910390fd5b600073ffffffffffffffffffffffffffffffffffffffff168273ffffffffffffffffffffffffffffffffffffffff161415611b17576040517f08c379a00000000000000000000000000000000000000000000000000000000081526004018080602001828103825260228152602001806120a56022913960400191505060405180910390fd5b80600160008573ffffffffffffffffffffffffffffffffffffffff1673ffffffffffffffffffffffffffffffffffffffff16815260200190815260200160002060008473ffffffffffffffffffffffffffffffffffffffff1673ffffffffffffffffffffffffffffffffffffffff168152602001908152602001600020819055508173ffffffffffffffffffffffffffffffffffffffff168373ffffffffffffffffffffffffffffffffffffffff167f8c5be1e5ebec7d5bd14f71427d1e84f3dd0314c0f7b2291e5b200ac8c7c3b925836040518082815260200191505060405180910390a3505050565b6000611c0f848484611d10565b6000600160008673ffffffffffffffffffffffffffffffffffffffff1673ffffffffffffffffffffffffffffffffffffffff1681526020019081526020016000206000611c5a611fca565b73ffffffffffffffffffffffffffffffffffffffff1673ffffffffffffffffffffffffffffffffffffffff16815260200190815260200160002054905082811015611cf0576040517f08c379a00000000000000000000000000000000000000000000000000000000081526004018080602001828103825260288152602001806120ed6028913960400191505060405180910390fd5b611d0485611cfc611fca565b858403611a0b565b60019150509392505050565b600073ffffffffffffffffffffffffffffffffffffffff168373ffffffffffffffffffffffffffffffffffffffff161415611d96576040517f08c379a00000000000000000000000000000000000000000000000000000000081526004018080602001828103825260258152602001806121156025913960400191505060405180910390fd5b600073ffffffffffffffffffffffffffffffffffffffff168273ffffffffffffffffffffffffffffffffffffffff161415611e1c576040517f08c379a00000000000000000000000000000000000000000000000000000000081526004018080602001828103825260238152602001806120826023913960400191505060405180910390fd5b611e27838383611fd2565b60008060008573ffffffffffffffffffffffffffffffffffffffff1673ffffffffffffffffffffffffffffffffffffffff16815260200190815260200160002054905081811015611ec3576040517f08c379a00000000000000000000000000000000000000000000000000000000081526004018080602001828103825260268152602001806120c76026913960400191505060405180910390fd5b8181036000808673ffffffffffffffffffffffffffffffffffffffff1673ffffffffffffffffffffffffffffffffffffffff16815260200190815260200160002081905550816000808573ffffffffffffffffffffffffffffffffffffffff1673ffffffffffffffffffffffffffffffffffffffff168152602001908152602001600020600082825401925050819055508273ffffffffffffffffffffffffffffffffffffffff168473ffffffffffffffffffffffffffffffffffffffff167fddf252ad1be2c89b69c2b068fc378daa952ba7f163c4a11628f55a4df523b3ef846040518082815260200191505060405180910390a3611fc4848484611fd7565b50505050565b600033905090565b505050565b505050565b828054600181600116156101000203166002900490600052602060002090601f016020900481019282601f1061201d57805160ff191683800117855561204b565b8280016001018555821561204b579182015b8281111561204a57825182559160200191906001019061202f565b5b509050612058919061205c565b5090565b61207e91905b8082111561207a576000816000905550600101612062565b5090565b9056fe45524332303a207472616e7366657220746f20746865207a65726f206164647265737345524332303a20617070726f766520746f20746865207a65726f206164647265737345524332303a207472616e7366657220616d6f756e7420657863656564732062616c616e636545524332303a207472616e7366657220616d6f756e74206578636565647320616c6c6f77616e636545524332303a207472616e736665722066726f6d20746865207a65726f206164647265737345524332303a20617070726f76652066726f6d20746865207a65726f2061646472657373a265627a7a7231582076f6cd2d287cb08db2ac5c618691e3709849f5314cd1d6660de61ee724886bfe64736f6c63430005100032",
  "source": "// SPDX-License-Identifier: MIT\n\n// pragma solidity ^0.8.0;\npragma solidity >=0.4.24;\n\n\nimport \"./BaggageClaim-IERC20.sol\";\n\n\ncontract BaggageClaim  is IERC20{\n\n// ERC20 token \n   //-----------------------------------------------------------------------------\n    mapping(address => uint256) private _balances;\n\n    mapping(address => mapping(address => uint256)) private _allowances;\n\n    uint256 private _totalSupply;\n\n    string private _name;\n    string private _symbol;\n    //-------------------------------------------------------------------------------\n\n//\n\n\n    address airportAuthority;\n    uint public myBalance;\n\n\n    struct details{\n        uint status;\n        uint hashOfDetails;\n    }\n\n    struct Memeberships{\n        uint memebershipStatus;//0 new, //1-airport,//2-authority//3-customer\n    }\n\n    struct Airports{\n        address airportAddress;\n        string airportName;\n    }\n\n    struct AirportBaggage{\n        uint timestamp;\n        uint pricePerbag;\n        uint totalBaggage;\n        uint totalUnclaimedBaggage;\n        uint totalBaggageClaimed;\n    }\n\n    struct ClaimRequest{\n        uint requestStatus;\n        uint requestQuantity;\n        uint amount;\n    }\n\n    mapping (address => details) balanceDetails;\n    mapping(address => AirportBaggage) airportBaggage;\n    mapping(uint => ClaimRequest) claimRequest;\n    mapping(address => Memeberships) memberships;\n    Airports[] airportNames;\n\n\n// Modifiers  \n   //-----------------------------------------------------------------------------\n   \n    modifier onlyAirportAuthority(){\n        require(msg.sender == airportAuthority);\n        _;\n    }\n\n    modifier onlyAirport(){\n        require(memberships[msg.sender].memebershipStatus==1);\n        _;\n    }\n\n    modifier onlyCustomer(){\n        require(memberships[msg.sender].memebershipStatus!=1);\n        require(memberships[msg.sender].memebershipStatus!=2);\n        _;\n    }\n\n    //-----------------------------------------------------------------------------  \n  \n//\n\n\n//Constructor\n        //-----------------------------------------------------------------------------  \n    \n    constructor ()  public{\n           _name = 'Baggage Claim';\n        _symbol = 'CUB';\n        _totalSupply=10000;\n        _balances[msg.sender] = _totalSupply;\n\n        airportAuthority = msg.sender;\n        // balanceDetails[msg.sender].escrow = msg.value;\n        memberships[msg.sender].memebershipStatus = 2;\n        myBalance = address(this).balance;\n    }\n\n    //-----------------------------------------------------------------------------  \n  \n//\n    event LogMessage(string message, uint value);\n\n// Airport Authority functions \n    //-----------------------------------------------------------------------------\n     \n    function unregisterCustomer(address  customer) public  onlyAirportAuthority{\n        if(memberships[customer].memebershipStatus!=3){\n            revert();\n        }\n        memberships[customer].memebershipStatus = 0;\n        _approve(customer,airportAuthority, _balances[customer]);\n\n        transferFrom(customer, airportAuthority, _balances[customer]);\n    }\n    function unregisterAirports(address  toAirports) public  onlyAirportAuthority{\n        if(memberships[toAirports].memebershipStatus!=1){\n            revert();\n        }\n        memberships[toAirports].memebershipStatus = 0;\n        _approve(toAirports,airportAuthority, _balances[toAirports]);\n\n        transferFrom(toAirports, airportAuthority, _balances[toAirports]);\n\n    }\n     function giveJoiningBonus(address  joiner) public  onlyAirportAuthority{\n        if(memberships[joiner].memebershipStatus==0 ||\n        memberships[joiner].memebershipStatus==2 ){\n            revert();\n        }\n\n        _transfer(airportAuthority, joiner, 20);\n\n    }\n       //-----------------------------------------------------------------------------\n//  \n\n// Airport functions \n   //-----------------------------------------------------------------------------\n     \n\n    function registerAirports(string memory airportsName, uint pricePerbag) public{\n        if(msg.sender==airportAuthority){\n            revert();\n        }\n        if(memberships[msg.sender].memebershipStatus==3){\n            revert();\n        }\n        address newAirports =msg.sender;\n        airportBaggage[newAirports].timestamp = block.timestamp;\n        memberships[newAirports].memebershipStatus = 1;\n        airportBaggage[newAirports].pricePerbag = pricePerbag;\n        airportBaggage[newAirports].totalBaggage = 0;\n        airportBaggage[newAirports].totalBaggageClaimed = 0;\n        airportBaggage[newAirports].totalUnclaimedBaggage = 0;\n        airportNames.push(Airports(newAirports, airportsName));\n    }\n\n   \n\n    function addBaggaage(uint noOfBaggage) public onlyAirport{\n        airportBaggage[msg.sender].totalBaggage+=noOfBaggage;\n        airportBaggage[msg.sender].totalUnclaimedBaggage+=noOfBaggage;\n\n    }\n\n\n    function responseToClaimBaggage(uint done, uint hashOfDetails) public onlyAirport{\n        if(claimRequest[hashOfDetails].requestStatus!=1){\n            revert();\n        }\n        balanceDetails[msg.sender].status = done;\n        balanceDetails[msg.sender].hashOfDetails = hashOfDetails;\n        claimRequest[hashOfDetails].requestStatus = done;\n    }\n\n\n   //-----------------------------------------------------------------------------\n//\n\n// Customer functions \n   //-----------------------------------------------------------------------------\n     \n\n   function registerCustomer() public{\n        if(msg.sender==airportAuthority){\n            revert();\n        }\n        if(memberships[msg.sender].memebershipStatus==1){\n            revert();\n        }\n        address customer =msg.sender;\n        memberships[customer].memebershipStatus = 3;\n\n\n                _approve(airportAuthority,customer, 100);\n\n        transferFrom(airportAuthority, customer, 100);\n\n\n    }\n\n    function requestToClaimBaggage(address fromAirport, uint hashOfDetails, uint noOfBaggage) public  onlyCustomer{\n        uint totalAmountNeeded = (airportBaggage[fromAirport].pricePerbag)*noOfBaggage;\n        if(airportBaggage[fromAirport].totalUnclaimedBaggage<noOfBaggage){\n            revert();\n        }\n        if(memberships[fromAirport].memebershipStatus!=1){\n            revert();\n        }\n        if(totalAmountNeeded > balanceOf()){\n            revert();\n        }\n\n        address newBuyer = msg.sender;\n        balanceDetails[newBuyer].status = 1;\n\n\n\n  \n        balanceDetails[msg.sender].hashOfDetails = hashOfDetails;\n        claimRequest[hashOfDetails].requestStatus = 1;\n\n        claimRequest[hashOfDetails].requestQuantity = noOfBaggage;\n\n    }\n\n    function settlePayment(address  toAirport, uint hashOfDetails) public  onlyCustomer{\n        uint quantity = claimRequest[hashOfDetails].requestQuantity;\n        uint amt = quantity * airportBaggage[toAirport].pricePerbag;\n        emit LogMessage(\"Payment of \", amt);\n        emit LogMessage(\"Payment of airport sent \", amt);\n        if(balanceOf()<amt){\n            revert();\n        }\n        if(claimRequest[hashOfDetails].requestStatus!=2){\n            revert();\n        }\n\n        address customer = msg.sender;\n        _transfer(customer, toAirport, amt);\n\n        airportBaggage[toAirport].totalBaggage = airportBaggage[toAirport].totalBaggage-quantity;\n        airportBaggage[toAirport].totalUnclaimedBaggage = airportBaggage[toAirport].totalUnclaimedBaggage-quantity;\n        airportBaggage[toAirport].totalBaggageClaimed+= airportBaggage[toAirport].totalBaggageClaimed+quantity;\n        balanceDetails[toAirport].hashOfDetails = hashOfDetails;\n\n\n    }\n\n   //-----------------------------------------------------------------------------\n//\n\n//  functions to read data  \n    //-----------------------------------------------------------------------------  \n  \n\n    function getTotalUnclaimedBaggage() public view returns(uint){\n        return airportBaggage[msg.sender].totalUnclaimedBaggage;\n    }\n\n    function getAirportClaimedBagagge() public view returns(uint){\n        return airportBaggage[msg.sender].totalBaggageClaimed;\n    }\n\n\n    function getAirportsCount() public view returns(uint){\n        return airportNames.length;\n    }\n\n    function getAirportsName(uint index) public view returns(string memory){\n        return airportNames[index].airportName;\n    }\n\n    function getAirportsAddress(uint index) public view returns(address){\n        return airportNames[index].airportAddress;\n    }\n\n    function getAirportPricePerBag() public view returns(uint){\n        return airportBaggage[msg.sender].pricePerbag;\n    }\n\n    function getMembershipStatus() public view returns(uint){\n        return memberships[msg.sender].memebershipStatus;\n    }\n\n    //-----------------------------------------------------------------------------  \n//\n\n// ERC20 functions \n   //-----------------------------------------------------------------------------\n     \n\n    function transfer(address sender,address recipient, uint256 amount) internal   returns (bool) {\n        _transfer(sender, recipient, amount);\n        return true;\n    }\n\n   \n    function allowance(address owner, address spender) internal view   returns (uint256) {\n        return _allowances[owner][spender];\n    }\n\n  \n    function approve(address spender, uint256 amount) internal   returns (bool) {\n        _approve(_msgSender(), spender, amount);\n        return true;\n    }\n\n    \n    function transferFrom(\n        address sender,\n        address recipient,\n        uint256 amount\n    ) internal   returns (bool) {\n        _transfer(sender, recipient, amount);\n\n        uint256 currentAllowance = _allowances[sender][_msgSender()];\n        require(currentAllowance >= amount, \"ERC20: transfer amount exceeds allowance\");\n        \n            _approve(sender, _msgSender(), currentAllowance - amount);\n        \n\n        return true;\n    }\n\n   \n    function _transfer(\n        address sender,\n        address recipient,\n        uint256 amount\n    ) internal  {\n        require(sender != address(0), \"ERC20: transfer from the zero address\");\n        require(recipient != address(0), \"ERC20: transfer to the zero address\");\n\n        _beforeTokenTransfer(sender, recipient, amount);\n\n        uint256 senderBalance = _balances[sender];\n        require(senderBalance >= amount, \"ERC20: transfer amount exceeds balance\");\n        \n            _balances[sender] = senderBalance - amount;\n        \n        _balances[recipient] += amount;\n\n        emit Transfer(sender, recipient, amount);\n\n        _afterTokenTransfer(sender, recipient, amount);\n    }\n  \n   function balanceOf() public view returns (uint256) {\n        return _balances[msg.sender];\n    }\n\n    function _approve(\n        address owner,\n        address spender,\n        uint256 amount\n    ) internal  {\n        require(owner != address(0), \"ERC20: approve from the zero address\");\n        require(spender != address(0), \"ERC20: approve to the zero address\");\n\n        _allowances[owner][spender] = amount;\n        emit Approval(owner, spender, amount);\n    }\n\n    function _msgSender() internal view  returns (address) {\n        return msg.sender;\n    }\n    function _beforeTokenTransfer(\n        address from,\n        address to,\n        uint256 amount\n    ) internal  {}\n\n   \n    function _afterTokenTransfer(\n        address from,\n        address to,\n        uint256 amount\n    ) internal  {}\n    //-------------------------------------------------------------------------------\n\n//\n\n}",
  "sourcePath": "/Users/shubhangimishra/Downloads/BaggageClaim/contract/contracts/BaggageClaim.sol",
  "compiler": {
    "name": "solc",
    "version": "0.5.16+commit.9c3226ce.Emscripten.clang"
  },
  "schemaVersion": "3.4.7",
  "updatedAt": "2022-05-07T19:00:27.988Z",
  "networkType": "ethereum",
  "devdoc": {
    "methods": {}
  },
  "userdoc": {
    "methods": {}
  }
}